{
  "contractName": "designVoting",
  "abi": [
    {
      "anonymous": false,
      "inputs": [
        {
          "indexed": false,
          "internalType": "bytes32",
          "name": "file_hash",
          "type": "bytes32"
        },
        {
          "indexed": false,
          "internalType": "uint256",
          "name": "design_number",
          "type": "uint256"
        },
        {
          "indexed": false,
          "internalType": "address",
          "name": "creator",
          "type": "address"
        }
      ],
      "name": "newDesignAvailable",
      "type": "event"
    },
    {
      "anonymous": false,
      "inputs": [
        {
          "indexed": false,
          "internalType": "address",
          "name": "player_address",
          "type": "address"
        },
        {
          "indexed": false,
          "internalType": "bool",
          "name": "status",
          "type": "bool"
        }
      ],
      "name": "newPlayerAddition",
      "type": "event"
    },
    {
      "anonymous": false,
      "inputs": [
        {
          "indexed": false,
          "internalType": "address",
          "name": "player_address",
          "type": "address"
        },
        {
          "indexed": false,
          "internalType": "uint256",
          "name": "design_number",
          "type": "uint256"
        },
        {
          "indexed": false,
          "internalType": "bool",
          "name": "status",
          "type": "bool"
        }
      ],
      "name": "newPlayerRegistration",
      "type": "event"
    },
    {
      "anonymous": false,
      "inputs": [
        {
          "indexed": false,
          "internalType": "address",
          "name": "printer",
          "type": "address"
        },
        {
          "indexed": false,
          "internalType": "bytes32",
          "name": "name",
          "type": "bytes32"
        }
      ],
      "name": "newPrinterAddition",
      "type": "event"
    },
    {
      "anonymous": false,
      "inputs": [
        {
          "indexed": false,
          "internalType": "uint256",
          "name": "design_number",
          "type": "uint256"
        },
        {
          "indexed": false,
          "internalType": "address",
          "name": "player_address",
          "type": "address"
        }
      ],
      "name": "playerCommitted",
      "type": "event"
    },
    {
      "anonymous": false,
      "inputs": [
        {
          "indexed": false,
          "internalType": "uint256",
          "name": "design_number",
          "type": "uint256"
        },
        {
          "indexed": false,
          "internalType": "address",
          "name": "player_address",
          "type": "address"
        }
      ],
      "name": "playerDesignReceived",
      "type": "event"
    },
    {
      "anonymous": false,
      "inputs": [
        {
          "indexed": false,
          "internalType": "uint256",
          "name": "design_number",
          "type": "uint256"
        },
        {
          "indexed": false,
          "internalType": "address",
          "name": "player_address",
          "type": "address"
        }
      ],
      "name": "playerRevealed",
      "type": "event"
    },
    {
      "anonymous": false,
      "inputs": [
        {
          "indexed": false,
          "internalType": "uint256",
          "name": "design_number",
          "type": "uint256"
        },
        {
          "indexed": false,
          "internalType": "address",
          "name": "player_address",
          "type": "address"
        },
        {
          "indexed": false,
          "internalType": "address",
          "name": "printer_address",
          "type": "address"
        }
      ],
      "name": "proofAdded",
      "type": "event"
    },
    {
      "anonymous": false,
      "inputs": [
        {
          "indexed": false,
          "internalType": "bytes32",
          "name": "file_hash",
          "type": "bytes32"
        },
        {
          "indexed": false,
          "internalType": "uint256",
          "name": "design_number",
          "type": "uint256"
        },
        {
          "indexed": false,
          "internalType": "address",
          "name": "creator",
          "type": "address"
        }
      ],
      "name": "resultCalculated",
      "type": "event"
    },
    {
      "anonymous": false,
      "inputs": [
        {
          "indexed": false,
          "internalType": "address",
          "name": "_output",
          "type": "address"
        }
      ],
      "name": "tempOutput",
      "type": "event"
    },
    {
      "anonymous": false,
      "inputs": [
        {
          "indexed": false,
          "internalType": "int256",
          "name": "result",
          "type": "int256"
        }
      ],
      "name": "votingResult",
      "type": "event"
    },
    {
      "inputs": [
        {
          "internalType": "bytes32",
          "name": "_fileHash",
          "type": "bytes32"
        },
        {
          "internalType": "uint256",
          "name": "_timestamp",
          "type": "uint256"
        },
        {
          "internalType": "uint256",
          "name": "_commitment",
          "type": "uint256"
        },
        {
          "internalType": "address",
          "name": "_manager",
          "type": "address"
        },
        {
          "internalType": "uint256",
          "name": "_taur",
          "type": "uint256"
        },
        {
          "internalType": "uint256",
          "name": "_taup",
          "type": "uint256"
        },
        {
          "internalType": "uint256",
          "name": "_deltaExp",
          "type": "uint256"
        },
        {
          "internalType": "uint256",
          "name": "_deltaReveal",
          "type": "uint256"
        }
      ],
      "name": "announce",
      "outputs": [],
      "stateMutability": "payable",
      "type": "function",
      "payable": true
    },
    {
      "inputs": [],
      "name": "getNumDesignes",
      "outputs": [
        {
          "internalType": "uint256",
          "name": "",
          "type": "uint256"
        }
      ],
      "stateMutability": "view",
      "type": "function",
      "constant": true
    },
    {
      "inputs": [
        {
          "internalType": "uint256",
          "name": "_index",
          "type": "uint256"
        }
      ],
      "name": "getDesigne",
      "outputs": [
        {
          "components": [
            {
              "internalType": "bytes32",
              "name": "filehash",
              "type": "bytes32"
            },
            {
              "internalType": "address",
              "name": "vendor",
              "type": "address"
            },
            {
              "internalType": "uint256",
              "name": "timestamp",
              "type": "uint256"
            },
            {
              "internalType": "uint256",
              "name": "balance",
              "type": "uint256"
            },
            {
              "internalType": "address",
              "name": "manager",
              "type": "address"
            },
            {
              "internalType": "uint256",
              "name": "status",
              "type": "uint256"
            },
            {
              "internalType": "uint256",
              "name": "taup",
              "type": "uint256"
            },
            {
              "internalType": "uint256",
              "name": "taur",
              "type": "uint256"
            },
            {
              "internalType": "uint256",
              "name": "deltaExp",
              "type": "uint256"
            },
            {
              "internalType": "uint256",
              "name": "deltaReveal",
              "type": "uint256"
            },
            {
              "internalType": "int256",
              "name": "result",
              "type": "int256"
            }
          ],
          "internalType": "struct designVoting.designState",
          "name": "",
          "type": "tuple"
        }
      ],
      "stateMutability": "view",
      "type": "function",
      "constant": true
    },
    {
      "inputs": [
        {
          "internalType": "bytes32",
          "name": "_hashMsg",
          "type": "bytes32"
        },
        {
          "internalType": "bytes",
          "name": "_signature",
          "type": "bytes"
        }
      ],
      "name": "addPlayer",
      "outputs": [],
      "stateMutability": "nonpayable",
      "type": "function"
    },
    {
      "inputs": [],
      "name": "getNumPlayers",
      "outputs": [
        {
          "internalType": "uint256",
          "name": "",
          "type": "uint256"
        }
      ],
      "stateMutability": "view",
      "type": "function",
      "constant": true
    },
    {
      "inputs": [],
      "name": "getPlayerAddresses",
      "outputs": [
        {
          "internalType": "address[]",
          "name": "",
          "type": "address[]"
        }
      ],
      "stateMutability": "view",
      "type": "function",
      "constant": true
    },
    {
      "inputs": [
        {
          "internalType": "address",
          "name": "_playerAddress",
          "type": "address"
        }
      ],
      "name": "getPlayerDetails",
      "outputs": [
        {
          "internalType": "int256",
          "name": "",
          "type": "int256"
        },
        {
          "internalType": "uint256",
          "name": "",
          "type": "uint256"
        },
        {
          "internalType": "uint256",
          "name": "",
          "type": "uint256"
        }
      ],
      "stateMutability": "view",
      "type": "function",
      "constant": true
    },
    {
      "inputs": [
        {
          "internalType": "address",
          "name": "_playerAddress",
          "type": "address"
        },
        {
          "internalType": "uint256",
          "name": "_designNo",
          "type": "uint256"
        }
      ],
      "name": "getPlayerCommitment",
      "outputs": [
        {
          "internalType": "bytes32",
          "name": "",
          "type": "bytes32"
        }
      ],
      "stateMutability": "view",
      "type": "function",
      "constant": true
    },
    {
      "inputs": [
        {
          "internalType": "address",
          "name": "_playerAddress",
          "type": "address"
        },
        {
          "internalType": "uint256",
          "name": "_designNo",
          "type": "uint256"
        }
      ],
      "name": "getPlayerVote",
      "outputs": [
        {
          "internalType": "int256",
          "name": "",
          "type": "int256"
        }
      ],
      "stateMutability": "view",
      "type": "function",
      "constant": true
    },
    {
      "inputs": [
        {
          "internalType": "address",
          "name": "_playerAddress",
          "type": "address"
        },
        {
          "internalType": "uint256",
          "name": "_designNo",
          "type": "uint256"
        }
      ],
      "name": "isFileReceived",
      "outputs": [
        {
          "internalType": "bool",
          "name": "",
          "type": "bool"
        }
      ],
      "stateMutability": "view",
      "type": "function",
      "constant": true
    },
    {
      "inputs": [
        {
          "internalType": "bytes32",
          "name": "_hashMsg",
          "type": "bytes32"
        },
        {
          "internalType": "bytes",
          "name": "_signature",
          "type": "bytes"
        },
        {
          "internalType": "uint256",
          "name": "_designNo",
          "type": "uint256"
        },
        {
          "internalType": "uint256",
          "name": "_commitment",
          "type": "uint256"
        }
      ],
      "name": "register",
      "outputs": [],
      "stateMutability": "payable",
      "type": "function",
      "payable": true
    },
    {
      "inputs": [
        {
          "internalType": "uint256",
          "name": "_designNo",
          "type": "uint256"
        }
      ],
      "name": "getNumRegPlayers",
      "outputs": [
        {
          "internalType": "uint256",
          "name": "",
          "type": "uint256"
        }
      ],
      "stateMutability": "view",
      "type": "function",
      "constant": true
    },
    {
      "inputs": [
        {
          "internalType": "uint256",
          "name": "_designNo",
          "type": "uint256"
        }
      ],
      "name": "getRegPlayerAddresses",
      "outputs": [
        {
          "internalType": "address[]",
          "name": "",
          "type": "address[]"
        }
      ],
      "stateMutability": "view",
      "type": "function",
      "constant": true
    },
    {
      "inputs": [
        {
          "internalType": "uint256",
          "name": "_designNo",
          "type": "uint256"
        },
        {
          "internalType": "address",
          "name": "_playerAddress",
          "type": "address"
        }
      ],
      "name": "setReceived",
      "outputs": [],
      "stateMutability": "payable",
      "type": "function",
      "payable": true
    },
    {
      "inputs": [
        {
          "internalType": "uint256",
          "name": "_designNo",
          "type": "uint256"
        },
        {
          "internalType": "bytes32",
          "name": "_cryptoCommitment",
          "type": "bytes32"
        },
        {
          "internalType": "uint256",
          "name": "_timestamp",
          "type": "uint256"
        }
      ],
      "name": "commit",
      "outputs": [],
      "stateMutability": "nonpayable",
      "type": "function"
    },
    {
      "inputs": [
        {
          "internalType": "uint256",
          "name": "_designNo",
          "type": "uint256"
        },
        {
          "internalType": "int256",
          "name": "_vote",
          "type": "int256"
        },
        {
          "internalType": "bytes32",
          "name": "_nonce",
          "type": "bytes32"
        },
        {
          "internalType": "uint256",
          "name": "_timestamp",
          "type": "uint256"
        }
      ],
      "name": "reveal",
      "outputs": [],
      "stateMutability": "nonpayable",
      "type": "function"
    },
    {
      "inputs": [
        {
          "internalType": "uint256",
          "name": "_designNo",
          "type": "uint256"
        },
        {
          "internalType": "uint256",
          "name": "_timestamp",
          "type": "uint256"
        }
      ],
      "name": "calculateResult",
      "outputs": [],
      "stateMutability": "nonpayable",
      "type": "function"
    },
    {
      "inputs": [
        {
          "internalType": "address",
          "name": "_printerAddr",
          "type": "address"
        },
        {
          "internalType": "bytes32",
          "name": "_make",
          "type": "bytes32"
        },
        {
          "internalType": "bytes32",
          "name": "_name",
          "type": "bytes32"
        },
        {
          "internalType": "uint256",
          "name": "_strength",
          "type": "uint256"
        },
        {
          "internalType": "uint256",
          "name": "_flexibility",
          "type": "uint256"
        },
        {
          "internalType": "uint256",
          "name": "_durability",
          "type": "uint256"
        },
        {
          "internalType": "uint256",
          "name": "_difficulty",
          "type": "uint256"
        },
        {
          "internalType": "int256",
          "name": "_printTemperature",
          "type": "int256"
        },
        {
          "internalType": "int256",
          "name": "_bedTemperature",
          "type": "int256"
        },
        {
          "internalType": "bool",
          "name": "_soluble",
          "type": "bool"
        },
        {
          "internalType": "bool",
          "name": "_foodSafety",
          "type": "bool"
        }
      ],
      "name": "addPrinter",
      "outputs": [],
      "stateMutability": "nonpayable",
      "type": "function"
    },
    {
      "inputs": [
        {
          "internalType": "address",
          "name": "_userAddress",
          "type": "address"
        }
      ],
      "name": "getUserPrinters",
      "outputs": [
        {
          "internalType": "address[]",
          "name": "",
          "type": "address[]"
        }
      ],
      "stateMutability": "view",
      "type": "function",
      "constant": true
    },
    {
      "inputs": [
        {
          "internalType": "address",
          "name": "_printerAddr",
          "type": "address"
        }
      ],
      "name": "getPrinterDetails",
      "outputs": [
        {
          "components": [
            {
              "internalType": "bytes32",
              "name": "make",
              "type": "bytes32"
            },
            {
              "internalType": "bytes32",
              "name": "name",
              "type": "bytes32"
            },
            {
              "internalType": "uint256",
              "name": "strength",
              "type": "uint256"
            },
            {
              "internalType": "uint256",
              "name": "flexibility",
              "type": "uint256"
            },
            {
              "internalType": "uint256",
              "name": "durability",
              "type": "uint256"
            },
            {
              "internalType": "uint256",
              "name": "difficulty",
              "type": "uint256"
            },
            {
              "internalType": "int256",
              "name": "printTemperature",
              "type": "int256"
            },
            {
              "internalType": "int256",
              "name": "bedTemperature",
              "type": "int256"
            },
            {
              "internalType": "bool",
              "name": "soluble",
              "type": "bool"
            },
            {
              "internalType": "bool",
              "name": "foodSafety",
              "type": "bool"
            }
          ],
          "internalType": "struct designVoting.printerDetails",
          "name": "",
          "type": "tuple"
        }
      ],
      "stateMutability": "view",
      "type": "function",
      "constant": true
    },
    {
      "inputs": [],
      "name": "getNumPrinters",
      "outputs": [
        {
          "internalType": "uint256",
          "name": "",
          "type": "uint256"
        }
      ],
      "stateMutability": "view",
      "type": "function",
      "constant": true
    },
    {
      "inputs": [
        {
          "internalType": "address",
          "name": "_printerAddress",
          "type": "address"
        }
      ],
      "name": "get_printingProcess",
      "outputs": [
        {
          "components": [
            {
              "internalType": "uint256",
              "name": "startTimestamp",
              "type": "uint256"
            },
            {
              "internalType": "uint256",
              "name": "endTimestamp",
              "type": "uint256"
            },
            {
              "internalType": "bytes32",
              "name": "printingdataHash",
              "type": "bytes32"
            },
            {
              "internalType": "bytes32",
              "name": "designHash",
              "type": "bytes32"
            }
          ],
          "internalType": "struct designVoting.printingProcess",
          "name": "",
          "type": "tuple"
        }
      ],
      "stateMutability": "view",
      "type": "function",
      "constant": true
    },
    {
      "inputs": [
        {
          "internalType": "address",
          "name": "_printerAddress",
          "type": "address"
        },
        {
          "internalType": "uint256",
          "name": "startTimestamp",
          "type": "uint256"
        },
        {
          "internalType": "bytes32",
          "name": "designHash",
          "type": "bytes32"
        }
      ],
      "name": "printingBegin",
      "outputs": [],
      "stateMutability": "nonpayable",
      "type": "function"
    },
    {
      "inputs": [
        {
          "internalType": "address",
          "name": "_printerAddress",
          "type": "address"
        },
        {
          "internalType": "uint256",
          "name": "endTimestamp",
          "type": "uint256"
        },
        {
          "internalType": "bytes32",
          "name": "printingdataHash",
          "type": "bytes32"
        }
      ],
      "name": "end_of_printing",
      "outputs": [],
      "stateMutability": "nonpayable",
      "type": "function"
    },
    {
      "inputs": [
        {
          "internalType": "uint256",
          "name": "_designNo",
          "type": "uint256"
        },
        {
          "internalType": "address",
          "name": "_userAddress",
          "type": "address"
        },
        {
          "internalType": "address",
          "name": "_printerAddress",
          "type": "address"
        }
      ],
      "name": "isProofPresent",
      "outputs": [
        {
          "internalType": "bool",
          "name": "",
          "type": "bool"
        }
      ],
      "stateMutability": "view",
      "type": "function",
      "constant": true
    }
  ],
  "bytecode": "0x6080604052600060055534801561001557600080fd5b50614c71806100256000396000f3fe6080604052600436106101665760003560e01c80639fc70e35116100d1578063bb5093361161008a578063edcb274311610064578063edcb27431461055f578063ee93a6fc14610588578063fbad1813146105c5578063fbc32c60146105ee57610166565b8063bb509336146104e8578063c8dd6ce714610504578063c9e959741461054357610166565b80639fc70e35146103b4578063a121ba30146103f1578063a5c6ea711461041c578063a65a9eca14610459578063a67f4bf714610496578063ad498d7c146104bf57610166565b806355c9e9261161012357806355c9e926146102905780636b167290146102bb5780636fc4b2de146102f8578063724d4924146103215780638bcad6721461034c5780639cb2f9721461037757610166565b806307a9594a1461016b57806310a51d9b146101875780634ade5854146101c4578063511d53e8146101ed578063530930481461022a578063532af7d214610267575b600080fd5b610185600480360381019061018091906136c0565b61062b565b005b34801561019357600080fd5b506101ae60048036038101906101a991906134c8565b610b43565b6040516101bb91906145c9565b60405180910390f35b3480156101d057600080fd5b506101eb60048036038101906101e6919061361d565b610c10565b005b3480156101f957600080fd5b50610214600480360381019061020f91906135e1565b610da7565b6040516102219190614606565b60405180910390f35b34801561023657600080fd5b50610251600480360381019061024c91906137ed565b610e05565b60405161025e919061494f565b60405180910390f35b34801561027357600080fd5b5061028e60048036038101906102899190613953565b610f39565b005b34801561029c57600080fd5b506102a5611b7f565b6040516102b291906149a2565b60405180910390f35b3480156102c757600080fd5b506102e260048036038101906102dd91906134c8565b611b8c565b6040516102ef919061496b565b60405180910390f35b34801561030457600080fd5b5061031f600480360381019061031a919061366c565b611c6c565b005b34801561032d57600080fd5b50610336611f63565b60405161034391906145c9565b60405180910390f35b34801561035857600080fd5b50610361611ff1565b60405161036e91906149a2565b60405180910390f35b34801561038357600080fd5b5061039e600480360381019061039991906134c8565b611ffb565b6040516103ab9190614987565b60405180910390f35b3480156103c057600080fd5b506103db60048036038101906103d691906135e1565b61207c565b6040516103e891906145eb565b60405180910390f35b3480156103fd57600080fd5b506104066120e7565b60405161041391906149a2565b60405180910390f35b34801561042857600080fd5b50610443600480360381019061043e9190613852565b6120f4565b60405161045091906145eb565b60405180910390f35b34801561046557600080fd5b50610480600480360381019061047b91906137ed565b61219a565b60405161048d91906149a2565b60405180910390f35b3480156104a257600080fd5b506104bd60048036038101906104b8919061361d565b6121ba565b005b3480156104cb57600080fd5b506104e660048036038101906104e191906138f0565b612351565b005b61050260048036038101906104fd919061373b565b61252e565b005b34801561051057600080fd5b5061052b600480360381019061052691906134c8565b612867565b60405161053a939291906146b8565b60405180910390f35b61055d60048036038101906105589190613816565b612942565b005b34801561056b57600080fd5b50610586600480360381019061058191906134f1565b612af8565b005b34801561059457600080fd5b506105af60048036038101906105aa91906135e1565b612ff4565b6040516105bc919061469d565b60405180910390f35b3480156105d157600080fd5b506105ec60048036038101906105e791906138a1565b613052565b005b3480156105fa57600080fd5b50610615600480360381019061061091906137ed565b613200565b60405161062291906145c9565b60405180910390f35b6001600760003373ffffffffffffffffffffffffffffffffffffffff1673ffffffffffffffffffffffffffffffffffffffff16815260200190815260200160002054146106ad576040517f08c379a00000000000000000000000000000000000000000000000000000000081526004016106a4906147ef565b60405180910390fd5b60008060006106bb866132a1565b92509250925060606040518060400160405280601c81526020017f19457468657265756d205369676e6564204d6573736167653a0a3332000000008152509050600081896040516020016107109291906144c6565b6040516020818303038152906040528051906020012090503373ffffffffffffffffffffffffffffffffffffffff16600182878787604051600081526020016040526040516107629493929190614658565b6020604051602081039080840390855afa158015610784573d6000803e3d6000fd5b5050506020604051035173ffffffffffffffffffffffffffffffffffffffff16146107e4576040517f08c379a00000000000000000000000000000000000000000000000000000000081526004016107db906147af565b60405180910390fd5b60008611610827576040517f08c379a000000000000000000000000000000000000000000000000000000000815260040161081e9061486f565b60405180910390fd5b853414610869576040517f08c379a00000000000000000000000000000000000000000000000000000000081526004016108609061476f565b60405180910390fd5b60046000888152602001908152602001600020600601548610156108c2576040517f08c379a00000000000000000000000000000000000000000000000000000000081526004016108b99061478f565b60405180910390fd5b60046000888152602001908152602001600020600701546004600089815260200190815260200160002060030154816108f757fe5b0460036000898152602001908152602001600020805490501061094f576040517f08c379a00000000000000000000000000000000000000000000000000000000081526004016109469061492f565b60405180910390fd5b60006002600089815260200190815260200160002060003373ffffffffffffffffffffffffffffffffffffffff1673ffffffffffffffffffffffffffffffffffffffff16815260200190815260200160002054146109e2576040517f08c379a00000000000000000000000000000000000000000000000000000000081526004016109d99061472f565b60405180910390fd5b60016002600089815260200190815260200160002060003373ffffffffffffffffffffffffffffffffffffffff1673ffffffffffffffffffffffffffffffffffffffff1681526020019081526020016000208190555060036000888152602001908152602001600020339080600181540180825580915050600190039060005260206000200160009091909190916101000a81548173ffffffffffffffffffffffffffffffffffffffff021916908373ffffffffffffffffffffffffffffffffffffffff16021790555034600660003373ffffffffffffffffffffffffffffffffffffffff1673ffffffffffffffffffffffffffffffffffffffff168152602001908152602001600020600601600082825401925050819055507f5f142c525761e989ef9a126c95a342ee74c720a7272ea67127ed34660df2d7dc33886001604051610b3093929190614569565b60405180910390a1505050505050505050565b6060600d60008373ffffffffffffffffffffffffffffffffffffffff1673ffffffffffffffffffffffffffffffffffffffff168152602001908152602001600020805480602002602001604051908101604052809291908181526020018280548015610c0457602002820191906000526020600020905b8160009054906101000a900473ffffffffffffffffffffffffffffffffffffffff1673ffffffffffffffffffffffffffffffffffffffff1681526020019060010190808311610bba575b50505050509050919050565b6001600760003373ffffffffffffffffffffffffffffffffffffffff1673ffffffffffffffffffffffffffffffffffffffff1681526020019081526020016000205414610c92576040517f08c379a0000000000000000000000000000000000000000000000000000000008152600401610c89906148cf565b60405180910390fd5b6001600a60008573ffffffffffffffffffffffffffffffffffffffff1673ffffffffffffffffffffffffffffffffffffffff1681526020019081526020016000205414610d14576040517f08c379a0000000000000000000000000000000000000000000000000000000008152600401610d0b9061480f565b60405180910390fd5b81600c60008573ffffffffffffffffffffffffffffffffffffffff1673ffffffffffffffffffffffffffffffffffffffff1681526020019081526020016000206001018190555080600c60008573ffffffffffffffffffffffffffffffffffffffff1673ffffffffffffffffffffffffffffffffffffffff16815260200190815260200160002060020181905550505050565b6000600660008473ffffffffffffffffffffffffffffffffffffffff1673ffffffffffffffffffffffffffffffffffffffff168152602001908152602001600020600201600083815260200190815260200160002054905092915050565b610e0d6132f7565b6004600083815260200190815260200160002060405180610160016040529081600082015481526020016001820160009054906101000a900473ffffffffffffffffffffffffffffffffffffffff1673ffffffffffffffffffffffffffffffffffffffff1673ffffffffffffffffffffffffffffffffffffffff16815260200160028201548152602001600382015481526020016004820160009054906101000a900473ffffffffffffffffffffffffffffffffffffffff1673ffffffffffffffffffffffffffffffffffffffff1673ffffffffffffffffffffffffffffffffffffffff1681526020016005820154815260200160068201548152602001600782015481526020016008820154815260200160098201548152602001600a820154815250509050919050565b6000600460008481526020019081526020016000206005015414610f92576040517f08c379a0000000000000000000000000000000000000000000000000000000008152600401610f899061484f565b60405180910390fd5b6004600083815260200190815260200160002060090154600460008481526020019081526020016000206008015460046000858152602001908152602001600020600201540101811161101a576040517f08c379a00000000000000000000000000000000000000000000000000000000081526004016110119061470f565b60405180910390fd5b60008060005b600360008681526020019081526020016000208054905081101561131e576006600060036000888152602001908152602001600020838154811061106057fe5b9060005260206000200160009054906101000a900473ffffffffffffffffffffffffffffffffffffffff1673ffffffffffffffffffffffffffffffffffffffff1673ffffffffffffffffffffffffffffffffffffffff16815260200190815260200160002060000154600660006003600089815260200190815260200160002084815481106110eb57fe5b9060005260206000200160009054906101000a900473ffffffffffffffffffffffffffffffffffffffff1673ffffffffffffffffffffffffffffffffffffffff1673ffffffffffffffffffffffffffffffffffffffff1681526020019081526020016000206001015460066000600360008a8152602001908152602001600020858154811061117657fe5b9060005260206000200160009054906101000a900473ffffffffffffffffffffffffffffffffffffffff1673ffffffffffffffffffffffffffffffffffffffff1673ffffffffffffffffffffffffffffffffffffffff1681526020019081526020016000206003016000888152602001908152602001600020540202830192506006600060036000888152602001908152602001600020838154811061121857fe5b9060005260206000200160009054906101000a900473ffffffffffffffffffffffffffffffffffffffff1673ffffffffffffffffffffffffffffffffffffffff1673ffffffffffffffffffffffffffffffffffffffff16815260200190815260200160002060000154600660006003600089815260200190815260200160002084815481106112a357fe5b9060005260206000200160009054906101000a900473ffffffffffffffffffffffffffffffffffffffff1673ffffffffffffffffffffffffffffffffffffffff1673ffffffffffffffffffffffffffffffffffffffff1681526020019081526020016000206001015402820191508080600101915050611020565b506000816002028284018161132f57fe5b0590506000826002028385018161134257fe5b079050600060018314806113565750838212155b1561137c57600160046000898152602001908152602001600020600a01819055506113c1565b838212156113c0577fffffffffffffffffffffffffffffffffffffffffffffffffffffffffffffffff60046000898152602001908152602001600020600a01819055505b5b60005b600360008981526020019081526020016000208054905081101561187757600060066000600360008c8152602001908152602001600020848154811061140657fe5b9060005260206000200160009054906101000a900473ffffffffffffffffffffffffffffffffffffffff1673ffffffffffffffffffffffffffffffffffffffff1673ffffffffffffffffffffffffffffffffffffffff16815260200190815260200160002060030160008a81526020019081526020016000205413156116f5578160066000600360008c815260200190815260200160002084815481106114a957fe5b9060005260206000200160009054906101000a900473ffffffffffffffffffffffffffffffffffffffff1673ffffffffffffffffffffffffffffffffffffffff1673ffffffffffffffffffffffffffffffffffffffff16815260200190815260200160002060030160008a8152602001908152602001600020540260066000600360008c8152602001908152602001600020848154811061154657fe5b9060005260206000200160009054906101000a900473ffffffffffffffffffffffffffffffffffffffff1673ffffffffffffffffffffffffffffffffffffffff1673ffffffffffffffffffffffffffffffffffffffff168152602001908152602001600020600001600082825401925050819055508160066000600360008c815260200190815260200160002084815481106115de57fe5b9060005260206000200160009054906101000a900473ffffffffffffffffffffffffffffffffffffffff1673ffffffffffffffffffffffffffffffffffffffff1673ffffffffffffffffffffffffffffffffffffffff16815260200190815260200160002060030160008a8152602001908152602001600020540260066000600360008c8152602001908152602001600020848154811061167b57fe5b9060005260206000200160009054906101000a900473ffffffffffffffffffffffffffffffffffffffff1673ffffffffffffffffffffffffffffffffffffffff1673ffffffffffffffffffffffffffffffffffffffff1681526020019081526020016000206001016000828254019250508190555061186a565b817fffffffffffffffffffffffffffffffffffffffffffffffffffffffffffffffff0260066000600360008c8152602001908152602001600020848154811061173a57fe5b9060005260206000200160009054906101000a900473ffffffffffffffffffffffffffffffffffffffff1673ffffffffffffffffffffffffffffffffffffffff1673ffffffffffffffffffffffffffffffffffffffff16815260200190815260200160002060000160008282540192505081905550817fffffffffffffffffffffffffffffffffffffffffffffffffffffffffffffffff0260066000600360008c815260200190815260200160002084815481106117f457fe5b9060005260206000200160009054906101000a900473ffffffffffffffffffffffffffffffffffffffff1673ffffffffffffffffffffffffffffffffffffffff1673ffffffffffffffffffffffffffffffffffffffff168152602001908152602001600020600101600082825401925050819055505b80806001019150506113c4565b5060005b6003600089815260200190815260200160002080549050811015611b225760018260066000600360008d815260200190815260200160002085815481106118be57fe5b9060005260206000200160009054906101000a900473ffffffffffffffffffffffffffffffffffffffff1673ffffffffffffffffffffffffffffffffffffffff1673ffffffffffffffffffffffffffffffffffffffff16815260200190815260200160002060030160008b815260200190815260200160002054021415611a2c57600460008981526020019081526020016000206007015460066000600360008c8152602001908152602001600020848154811061197857fe5b9060005260206000200160009054906101000a900473ffffffffffffffffffffffffffffffffffffffff1673ffffffffffffffffffffffffffffffffffffffff1673ffffffffffffffffffffffffffffffffffffffff168152602001908152602001600020600601600082825401925050819055506004600089815260200190815260200160002060070154600460008a815260200190815260200160002060030160008282540392505081905550611b15565b600460008981526020019081526020016000206006015460066000600360008c81526020019081526020016000208481548110611a6557fe5b9060005260206000200160009054906101000a900473ffffffffffffffffffffffffffffffffffffffff1673ffffffffffffffffffffffffffffffffffffffff1673ffffffffffffffffffffffffffffffffffffffff168152602001908152602001600020600601600082825403925050819055506004600089815260200190815260200160002060060154600460008a8152602001908152602001600020600301600082825401925050819055505b808060010191505061187b565b50600160046000898152602001908152602001600020600501819055507fbd9785037e1262e9a00f3274afb543f70050db0c0a99864959f281c5348621e981604051611b6e919061469d565b60405180910390a150505050505050565b6000600880549050905090565b611b94613380565b600960008373ffffffffffffffffffffffffffffffffffffffff1673ffffffffffffffffffffffffffffffffffffffff1681526020019081526020016000206040518061014001604052908160008201548152602001600182015481526020016002820154815260200160038201548152602001600482015481526020016005820154815260200160068201548152602001600782015481526020016008820160009054906101000a900460ff161515151581526020016008820160019054906101000a900460ff1615151515815250509050919050565b6000806000611c7a846132a1565b925092509250600085604051602001611c93919061451a565b6040516020818303038152906040528051906020012090503373ffffffffffffffffffffffffffffffffffffffff1660018286868660405160008152602001604052604051611ce59493929190614658565b6020604051602081039080840390855afa158015611d07573d6000803e3d6000fd5b5050506020604051035173ffffffffffffffffffffffffffffffffffffffff1614611d67576040517f08c379a0000000000000000000000000000000000000000000000000000000008152600401611d5e906147af565b60405180910390fd5b6000600760003373ffffffffffffffffffffffffffffffffffffffff1673ffffffffffffffffffffffffffffffffffffffff1681526020019081526020016000205414611de9576040517f08c379a0000000000000000000000000000000000000000000000000000000008152600401611de09061482f565b60405180910390fd5b6008339080600181540180825580915050600190039060005260206000200160009091909190916101000a81548173ffffffffffffffffffffffffffffffffffffffff021916908373ffffffffffffffffffffffffffffffffffffffff1602179055506001600760003373ffffffffffffffffffffffffffffffffffffffff1673ffffffffffffffffffffffffffffffffffffffff168152602001908152602001600020819055506001600660003373ffffffffffffffffffffffffffffffffffffffff1673ffffffffffffffffffffffffffffffffffffffff168152602001908152602001600020600001819055506001600660003373ffffffffffffffffffffffffffffffffffffffff1673ffffffffffffffffffffffffffffffffffffffff168152602001908152602001600020600101819055507f668925a7bc9acb2eb96b835fa199914e30573a7a74ab45e2bb2711f31536ce05336001604051611f53929190614540565b60405180910390a1505050505050565b60606008805480602002602001604051908101604052809291908181526020018280548015611fe757602002820191906000526020600020905b8160009054906101000a900473ffffffffffffffffffffffffffffffffffffffff1673ffffffffffffffffffffffffffffffffffffffff1681526020019060010190808311611f9d575b5050505050905090565b6000600554905090565b6120036133dd565b600c60008373ffffffffffffffffffffffffffffffffffffffff1673ffffffffffffffffffffffffffffffffffffffff1681526020019081526020016000206040518060800160405290816000820154815260200160018201548152602001600282015481526020016003820154815250509050919050565b6000600660008473ffffffffffffffffffffffffffffffffffffffff1673ffffffffffffffffffffffffffffffffffffffff168152602001908152602001600020600401600083815260200190815260200160002060009054906101000a900460ff16905092915050565b6000600b80549050905090565b60006001600085815260200190815260200160002060008473ffffffffffffffffffffffffffffffffffffffff1673ffffffffffffffffffffffffffffffffffffffff16815260200190815260200160002060008373ffffffffffffffffffffffffffffffffffffffff1673ffffffffffffffffffffffffffffffffffffffff16815260200190815260200160002060009054906101000a900460ff1690509392505050565b600060036000838152602001908152602001600020805490509050919050565b6001600760003373ffffffffffffffffffffffffffffffffffffffff1673ffffffffffffffffffffffffffffffffffffffff168152602001908152602001600020541461223c576040517f08c379a0000000000000000000000000000000000000000000000000000000008152600401612233906148cf565b60405180910390fd5b6001600a60008573ffffffffffffffffffffffffffffffffffffffff1673ffffffffffffffffffffffffffffffffffffffff16815260200190815260200160002054146122be576040517f08c379a00000000000000000000000000000000000000000000000000000000081526004016122b59061480f565b60405180910390fd5b81600c60008573ffffffffffffffffffffffffffffffffffffffff1673ffffffffffffffffffffffffffffffffffffffff1681526020019081526020016000206000018190555080600c60008573ffffffffffffffffffffffffffffffffffffffff1673ffffffffffffffffffffffffffffffffffffffff16815260200190815260200160002060030181905550505050565b60046000858152602001908152602001600020600901546004600086815260200190815260200160002060080154600460008781526020019081526020016000206002015401018111156123da576040517f08c379a00000000000000000000000000000000000000000000000000000000081526004016123d19061474f565b60405180910390fd5b82826040516020016123ed9291906144ee565b60405160208183030381529060405280519060200120600660003373ffffffffffffffffffffffffffffffffffffffff1673ffffffffffffffffffffffffffffffffffffffff16815260200190815260200160002060020160008681526020019081526020016000205414612497576040517f08c379a000000000000000000000000000000000000000000000000000000000815260040161248e906148af565b60405180910390fd5b82600660003373ffffffffffffffffffffffffffffffffffffffff1673ffffffffffffffffffffffffffffffffffffffff1681526020019081526020016000206003016000868152602001908152602001600020819055507fdef66c77ffe1a02e4aa7028bba0b6e9919e3f7cbfc96c028d7f06e84db64a01384336040516125209291906149e6565b60405180910390a150505050565b60008611612571576040517f08c379a00000000000000000000000000000000000000000000000000000000081526004016125689061486f565b60405180910390fd5b8534146125b3576040517f08c379a00000000000000000000000000000000000000000000000000000000081526004016125aa9061490f565b60405180910390fd5b60006005549050886004600083815260200190815260200160002060000181905550336004600083815260200190815260200160002060010160006101000a81548173ffffffffffffffffffffffffffffffffffffffff021916908373ffffffffffffffffffffffffffffffffffffffff160217905550876004600083815260200190815260200160002060020181905550866004600083815260200190815260200160002060030181905550856004600083815260200190815260200160002060040160006101000a81548173ffffffffffffffffffffffffffffffffffffffff021916908373ffffffffffffffffffffffffffffffffffffffff160217905550600060046000838152602001908152602001600020600a0181905550600085141561270257670de0b6b3a7640000600460008381526020019081526020016000206007018190555061271e565b8460046000838152602001908152602001600020600701819055505b600084141561274f57670de0b6b3a7640000600460008381526020019081526020016000206006018190555061276b565b8360046000838152602001908152602001600020600601819055505b60008314156127965761025860046000838152602001908152602001600020600801819055506127b2565b8260046000838152602001908152602001600020600801819055505b60008214156127dd5761025860046000838152602001908152602001600020600901819055506127f9565b8160046000838152602001908152602001600020600901819055505b600060046000838152602001908152602001600020600501819055506001600554016005819055507f6de6dd265a66870495db47d80136a9abe827e8d8f6f7dc77dc787a810a99d22689823360405161285493929190614621565b60405180910390a1505050505050505050565b6000806000600660008573ffffffffffffffffffffffffffffffffffffffff1673ffffffffffffffffffffffffffffffffffffffff16815260200190815260200160002060000154600660008673ffffffffffffffffffffffffffffffffffffffff1673ffffffffffffffffffffffffffffffffffffffff16815260200190815260200160002060010154600660008773ffffffffffffffffffffffffffffffffffffffff1673ffffffffffffffffffffffffffffffffffffffff168152602001908152602001600020600601549250925092509193909250565b6004600083815260200190815260200160002060040160009054906101000a900473ffffffffffffffffffffffffffffffffffffffff1673ffffffffffffffffffffffffffffffffffffffff163373ffffffffffffffffffffffffffffffffffffffff16146129e6576040517f08c379a00000000000000000000000000000000000000000000000000000000081526004016129dd906146ef565b60405180910390fd5b6001600660008373ffffffffffffffffffffffffffffffffffffffff1673ffffffffffffffffffffffffffffffffffffffff168152602001908152602001600020600401600084815260200190815260200160002060006101000a81548160ff021916908315150217905550600660008273ffffffffffffffffffffffffffffffffffffffff1673ffffffffffffffffffffffffffffffffffffffff1681526020019081526020016000206005018290806001815401808255809150506001900390600052602060002001600090919091909150557fad445976d756c325343e3cde33ca48c188cf3cd6aef968577b300bafb0a250208282604051612aec9291906149bd565b60405180910390a15050565b6001600760003373ffffffffffffffffffffffffffffffffffffffff1673ffffffffffffffffffffffffffffffffffffffff1681526020019081526020016000205414612b7a576040517f08c379a0000000000000000000000000000000000000000000000000000000008152600401612b71906148ef565b60405180910390fd5b89600960008d73ffffffffffffffffffffffffffffffffffffffff1673ffffffffffffffffffffffffffffffffffffffff1681526020019081526020016000206000018190555088600960008d73ffffffffffffffffffffffffffffffffffffffff1673ffffffffffffffffffffffffffffffffffffffff1681526020019081526020016000206001018190555087600960008d73ffffffffffffffffffffffffffffffffffffffff1673ffffffffffffffffffffffffffffffffffffffff1681526020019081526020016000206002018190555086600960008d73ffffffffffffffffffffffffffffffffffffffff1673ffffffffffffffffffffffffffffffffffffffff1681526020019081526020016000206003018190555085600960008d73ffffffffffffffffffffffffffffffffffffffff1673ffffffffffffffffffffffffffffffffffffffff1681526020019081526020016000206004018190555084600960008d73ffffffffffffffffffffffffffffffffffffffff1673ffffffffffffffffffffffffffffffffffffffff1681526020019081526020016000206005018190555083600960008d73ffffffffffffffffffffffffffffffffffffffff1673ffffffffffffffffffffffffffffffffffffffff1681526020019081526020016000206006018190555082600960008d73ffffffffffffffffffffffffffffffffffffffff1673ffffffffffffffffffffffffffffffffffffffff1681526020019081526020016000206007018190555081600960008d73ffffffffffffffffffffffffffffffffffffffff1673ffffffffffffffffffffffffffffffffffffffff16815260200190815260200160002060080160006101000a81548160ff02191690831515021790555080600960008d73ffffffffffffffffffffffffffffffffffffffff1673ffffffffffffffffffffffffffffffffffffffff16815260200190815260200160002060080160016101000a81548160ff021916908315150217905550600b8b9080600181540180825580915050600190039060005260206000200160009091909190916101000a81548173ffffffffffffffffffffffffffffffffffffffff021916908373ffffffffffffffffffffffffffffffffffffffff1602179055506001600a60008d73ffffffffffffffffffffffffffffffffffffffff1673ffffffffffffffffffffffffffffffffffffffff16815260200190815260200160002081905550600d60003373ffffffffffffffffffffffffffffffffffffffff1673ffffffffffffffffffffffffffffffffffffffff1681526020019081526020016000208b9080600181540180825580915050600190039060005260206000200160009091909190916101000a81548173ffffffffffffffffffffffffffffffffffffffff021916908373ffffffffffffffffffffffffffffffffffffffff1602179055507fa1d535b53fb85fad25a9639961384d4622e3876d8bdd858e779e931dd8604d2e8b8a604051612fdf9291906145a0565b60405180910390a15050505050505050505050565b6000600660008473ffffffffffffffffffffffffffffffffffffffff1673ffffffffffffffffffffffffffffffffffffffff168152602001908152602001600020600301600083815260200190815260200160002054905092915050565b60011515600660003373ffffffffffffffffffffffffffffffffffffffff1673ffffffffffffffffffffffffffffffffffffffff168152602001908152602001600020600401600085815260200190815260200160002060009054906101000a900460ff161515146130f9576040517f08c379a00000000000000000000000000000000000000000000000000000000081526004016130f09061488f565b60405180910390fd5b600460008481526020019081526020016000206008015460046000858152602001908152602001600020600201540181111561316a576040517f08c379a0000000000000000000000000000000000000000000000000000000008152600401613161906147cf565b60405180910390fd5b81600660003373ffffffffffffffffffffffffffffffffffffffff1673ffffffffffffffffffffffffffffffffffffffff1681526020019081526020016000206002016000858152602001908152602001600020819055507f2e7d6680302440a76b8a673f94bb4245e0106aba81bdb7ee3c92e6610a639fb183336040516131f39291906149e6565b60405180910390a1505050565b60606003600083815260200190815260200160002080548060200260200160405190810160405280929190818152602001828054801561329557602002820191906000526020600020905b8160009054906101000a900473ffffffffffffffffffffffffffffffffffffffff1673ffffffffffffffffffffffffffffffffffffffff168152602001906001019080831161324b575b50505050509050919050565b600080600060418451146132b457600080fd5b60008060006020870151925060408701519150606087015160001a9050601b8160ff1610156132e457601b810190505b8083839550955095505050509193909250565b60405180610160016040528060008019168152602001600073ffffffffffffffffffffffffffffffffffffffff1681526020016000815260200160008152602001600073ffffffffffffffffffffffffffffffffffffffff1681526020016000815260200160008152602001600081526020016000815260200160008152602001600081525090565b60405180610140016040528060008019168152602001600080191681526020016000815260200160008152602001600081526020016000815260200160008152602001600081526020016000151581526020016000151581525090565b6040518060800160405280600081526020016000815260200160008019168152602001600080191681525090565b60008135905061341a81614bc8565b92915050565b60008135905061342f81614bdf565b92915050565b60008135905061344481614bf6565b92915050565b600082601f83011261345b57600080fd5b813561346e61346982614a3c565b614a0f565b9150808252602083016020830185838301111561348a57600080fd5b613495838284614b72565b50505092915050565b6000813590506134ad81614c0d565b92915050565b6000813590506134c281614c24565b92915050565b6000602082840312156134da57600080fd5b60006134e88482850161340b565b91505092915050565b60008060008060008060008060008060006101608c8e03121561351357600080fd5b60006135218e828f0161340b565b9b505060206135328e828f01613435565b9a505060406135438e828f01613435565b99505060606135548e828f016134b3565b98505060806135658e828f016134b3565b97505060a06135768e828f016134b3565b96505060c06135878e828f016134b3565b95505060e06135988e828f0161349e565b9450506101006135aa8e828f0161349e565b9350506101206135bc8e828f01613420565b9250506101406135ce8e828f01613420565b9150509295989b509295989b9093969950565b600080604083850312156135f457600080fd5b60006136028582860161340b565b9250506020613613858286016134b3565b9150509250929050565b60008060006060848603121561363257600080fd5b60006136408682870161340b565b9350506020613651868287016134b3565b925050604061366286828701613435565b9150509250925092565b6000806040838503121561367f57600080fd5b600061368d85828601613435565b925050602083013567ffffffffffffffff8111156136aa57600080fd5b6136b68582860161344a565b9150509250929050565b600080600080608085870312156136d657600080fd5b60006136e487828801613435565b945050602085013567ffffffffffffffff81111561370157600080fd5b61370d8782880161344a565b935050604061371e878288016134b3565b925050606061372f878288016134b3565b91505092959194509250565b600080600080600080600080610100898b03121561375857600080fd5b60006137668b828c01613435565b98505060206137778b828c016134b3565b97505060406137888b828c016134b3565b96505060606137998b828c0161340b565b95505060806137aa8b828c016134b3565b94505060a06137bb8b828c016134b3565b93505060c06137cc8b828c016134b3565b92505060e06137dd8b828c016134b3565b9150509295985092959890939650565b6000602082840312156137ff57600080fd5b600061380d848285016134b3565b91505092915050565b6000806040838503121561382957600080fd5b6000613837858286016134b3565b92505060206138488582860161340b565b9150509250929050565b60008060006060848603121561386757600080fd5b6000613875868287016134b3565b93505060206138868682870161340b565b92505060406138978682870161340b565b9150509250925092565b6000806000606084860312156138b657600080fd5b60006138c4868287016134b3565b93505060206138d586828701613435565b92505060406138e6868287016134b3565b9150509250925092565b6000806000806080858703121561390657600080fd5b6000613914878288016134b3565b94505060206139258782880161349e565b935050604061393687828801613435565b9250506060613947878288016134b3565b91505092959194509250565b6000806040838503121561396657600080fd5b6000613974858286016134b3565b9250506020613985858286016134b3565b9150509250929050565b600061399b83836139b6565b60208301905092915050565b6139b081614b3c565b82525050565b6139bf81614ad3565b82525050565b6139ce81614ad3565b82525050565b60006139df82614a78565b6139e98185614a9b565b93506139f483614a68565b8060005b83811015613a25578151613a0c888261398f565b9750613a1783614a8e565b9250506001810190506139f8565b5085935050505092915050565b613a3b81614ae5565b82525050565b613a4a81614ae5565b82525050565b613a5981614af1565b82525050565b613a6881614af1565b82525050565b613a7f613a7a82614af1565b614bb4565b82525050565b6000613a9082614a83565b613a9a8185614aac565b9350613aaa818560208601614b81565b80840191505092915050565b613abf81614afb565b82525050565b613ace81614afb565b82525050565b613ae5613ae082614afb565b614bbe565b82525050565b6000613af8602483614ab7565b91507f4f6e6c79206d616e616765722063616e2063616c6c20746869732066756e637460008301527f696f6e2e000000000000000000000000000000000000000000000000000000006020830152604082019050919050565b6000613b5e601c83614ac8565b91507f19457468657265756d205369676e6564204d6573736167653a0a3332000000006000830152601c82019050919050565b6000613b9e603083614ab7565b91507f54686520726573756c742063616e6e6f742062652072657665616c656420626560008301527f666f726520746865206578706972792e000000000000000000000000000000006020830152604082019050919050565b6000613c04601a83614ab7565b91507f506c6179657220616c726561647920726567697374657265642e0000000000006000830152602082019050919050565b6000613c44602d83614ab7565b91507f54686520766f74652063616e6e6f742062652072657665616c6564206166746560008301527f7220746865206578706972792e000000000000000000000000000000000000006020830152604082019050919050565b6000613caa602f83614ab7565b91507f54686520726567697374726174696f6e206469646e277420726563656976652060008301527f74686520636f6d6d69746d656e742e00000000000000000000000000000000006020830152604082019050919050565b6000613d10603283614ab7565b91507f54686520636f6d6d69746d656e742073686f756c64206265206772656174657260008301527f207468616e207468652070656e616c74792e00000000000000000000000000006020830152604082019050919050565b6000613d76602e83614ab7565b91507f54686520726567697374726174696f6e206964656e746974792076657269666960008301527f636174696f6e206661696c65642e0000000000000000000000000000000000006020830152604082019050919050565b6000613ddc602483614ab7565b91507f54686520706c617965722063616e6e6f7420766f74652061667465722065787060008301527f6972792e000000000000000000000000000000000000000000000000000000006020830152604082019050919050565b6000613e42601f83614ab7565b91507f506c61796572206e6f7420616464656420746f207468652073797374656d2e006000830152602082019050919050565b6000613e82603283614ab7565b91507f4f6e6c792070726f6f662066726f6d206120726567697374657265642070726960008301527f6e7465722063616e2062652061646465642e00000000000000000000000000006020830152604082019050919050565b6000613ee8602383614ab7565b91507f506c6179657220616c726561647920616464656420746f20746865207379737460008301527f656d2e00000000000000000000000000000000000000000000000000000000006020830152604082019050919050565b6000613f4e603883614ab7565b91507f54686520766f74696e6720697320616c72656164792066696e6973686564206160008301527f6e6420726573756c747320617265206465636c617265642e00000000000000006020830152604082019050919050565b6000613fb4602583614ab7565b91507f54686520636f6d6d69746d656e742073686f756c64206265206d6f726520746860008301527f616e20302e0000000000000000000000000000000000000000000000000000006020830152604082019050919050565b600061401a604183614ab7565b91507f54686520706c617965722063616e20636f6d6d6974206f6e6c79207768656e2060008301527f6d616e6167657220636f6e6669726d732064657369676e2065786368616e676560208301527f2e000000000000000000000000000000000000000000000000000000000000006040830152606082019050919050565b60006140a6602283614ab7565b91507f54686520706c6179657220646964206e6f7420636f6d6d697420746f2074686960008301527f732e0000000000000000000000000000000000000000000000000000000000006020830152604082019050919050565b600061410c603083614ab7565b91507f4f6e6c79207265676973746572656420706c617965722063616e20616464207060008301527f726f6f66206f66207072696e7465722e000000000000000000000000000000006020830152604082019050919050565b6000614172602983614ab7565b91507f4f6e6c79207265676973746572656420706c617965722063616e20616464206160008301527f207072696e7465722e00000000000000000000000000000000000000000000006020830152604082019050919050565b60006141d8602f83614ab7565b91507f54686520616e6e6f756e63656d656e74206469646e277420726563656976652060008301527f74686520636f6d6d69746d656e742e00000000000000000000000000000000006020830152604082019050919050565b600061423e602383614ab7565b91507f4e6f206d6f726520726567697374726174696f6e73206172652061636365707460008301527f65642e00000000000000000000000000000000000000000000000000000000006020830152604082019050919050565b610160820160008201516142ae6000850182613a50565b5060208201516142c160208501826139b6565b5060408201516142d46040850182614499565b5060608201516142e76060850182614499565b5060808201516142fa60808501826139b6565b5060a082015161430d60a0850182614499565b5060c082015161432060c0850182614499565b5060e082015161433360e0850182614499565b50610100820151614348610100850182614499565b5061012082015161435d610120850182614499565b50610140820151614372610140850182613ab6565b50505050565b6101408201600082015161438f6000850182613a50565b5060208201516143a26020850182613a50565b5060408201516143b56040850182614499565b5060608201516143c86060850182614499565b5060808201516143db6080850182614499565b5060a08201516143ee60a0850182614499565b5060c082015161440160c0850182613ab6565b5060e082015161441460e0850182613ab6565b50610100820151614429610100850182613a32565b5061012082015161443e610120850182613a32565b50505050565b60808201600082015161445a6000850182614499565b50602082015161446d6020850182614499565b5060408201516144806040850182613a50565b5060608201516144936060850182613a50565b50505050565b6144a281614b25565b82525050565b6144b181614b25565b82525050565b6144c081614b2f565b82525050565b60006144d28285613a85565b91506144de8284613a6e565b6020820191508190509392505050565b60006144fa8285613ad4565b60208201915061450a8284613a6e565b6020820191508190509392505050565b600061452582613b51565b91506145318284613a6e565b60208201915081905092915050565b600060408201905061455560008301856139a7565b6145626020830184613a41565b9392505050565b600060608201905061457e60008301866139a7565b61458b60208301856144a8565b6145986040830184613a41565b949350505050565b60006040820190506145b560008301856139c5565b6145c26020830184613a5f565b9392505050565b600060208201905081810360008301526145e381846139d4565b905092915050565b60006020820190506146006000830184613a41565b92915050565b600060208201905061461b6000830184613a5f565b92915050565b60006060820190506146366000830186613a5f565b61464360208301856144a8565b61465060408301846139a7565b949350505050565b600060808201905061466d6000830187613a5f565b61467a60208301866144b7565b6146876040830185613a5f565b6146946060830184613a5f565b95945050505050565b60006020820190506146b26000830184613ac5565b92915050565b60006060820190506146cd6000830186613ac5565b6146da60208301856144a8565b6146e760408301846144a8565b949350505050565b6000602082019050818103600083015261470881613aeb565b9050919050565b6000602082019050818103600083015261472881613b91565b9050919050565b6000602082019050818103600083015261474881613bf7565b9050919050565b6000602082019050818103600083015261476881613c37565b9050919050565b6000602082019050818103600083015261478881613c9d565b9050919050565b600060208201905081810360008301526147a881613d03565b9050919050565b600060208201905081810360008301526147c881613d69565b9050919050565b600060208201905081810360008301526147e881613dcf565b9050919050565b6000602082019050818103600083015261480881613e35565b9050919050565b6000602082019050818103600083015261482881613e75565b9050919050565b6000602082019050818103600083015261484881613edb565b9050919050565b6000602082019050818103600083015261486881613f41565b9050919050565b6000602082019050818103600083015261488881613fa7565b9050919050565b600060208201905081810360008301526148a88161400d565b9050919050565b600060208201905081810360008301526148c881614099565b9050919050565b600060208201905081810360008301526148e8816140ff565b9050919050565b6000602082019050818103600083015261490881614165565b9050919050565b60006020820190508181036000830152614928816141cb565b9050919050565b6000602082019050818103600083015261494881614231565b9050919050565b6000610160820190506149656000830184614297565b92915050565b6000610140820190506149816000830184614378565b92915050565b600060808201905061499c6000830184614444565b92915050565b60006020820190506149b760008301846144a8565b92915050565b60006040820190506149d260008301856144a8565b6149df60208301846139c5565b9392505050565b60006040820190506149fb60008301856144a8565b614a0860208301846139a7565b9392505050565b6000604051905081810181811067ffffffffffffffff82111715614a3257600080fd5b8060405250919050565b600067ffffffffffffffff821115614a5357600080fd5b601f19601f8301169050602081019050919050565b6000819050602082019050919050565b600081519050919050565b600081519050919050565b6000602082019050919050565b600082825260208201905092915050565b600081905092915050565b600082825260208201905092915050565b600081905092915050565b6000614ade82614b05565b9050919050565b60008115159050919050565b6000819050919050565b6000819050919050565b600073ffffffffffffffffffffffffffffffffffffffff82169050919050565b6000819050919050565b600060ff82169050919050565b6000614b4782614b4e565b9050919050565b6000614b5982614b60565b9050919050565b6000614b6b82614b05565b9050919050565b82818337600083830152505050565b60005b83811015614b9f578082015181840152602081019050614b84565b83811115614bae576000848401525b50505050565b6000819050919050565b6000819050919050565b614bd181614ad3565b8114614bdc57600080fd5b50565b614be881614ae5565b8114614bf357600080fd5b50565b614bff81614af1565b8114614c0a57600080fd5b50565b614c1681614afb565b8114614c2157600080fd5b50565b614c2d81614b25565b8114614c3857600080fd5b5056fea26469706673582212201330e4a822d1a5c322180b9a34c713527bf22a6411fb47e71993455f57689f4f64736f6c63430007000033",
  "immutableReferences": {},
  "source": "/**\n * @file marketplace.sol\n * @author Nachiket Tapas <ntapas@unime.it>\n * @date created 01 Jun 2020\n * @date last modified 09 Jul 2020\n * @SPDX-License-Identifier: UNLICENSED\n */\n\npragma solidity ^0.7.0;\npragma experimental ABIEncoderV2;\n\ncontract designVoting {\n    // The status tells the state of the voting on the design\n    // 0: voting\n    // 1: finished\n    struct designState\n    {\n        bytes32 filehash;\n        address vendor;\n        uint256 timestamp;\n        uint256 balance;\n        address manager;\n        uint256 status;\n        uint256 taup;\n        uint256 taur;\n        uint256 deltaExp;\n        uint256 deltaReveal;\n        int result;    \n    }\n\n    //The vote is considered as follows\n    // 0 : no vote. maybe due to time expired\n    // -1 : invalid design\n    // 1 : valid design\n    struct playerState\n    {\n        int256 reputation;\n        uint256 weight;\n        mapping ( uint256 => bytes32 ) commitments;\n        mapping ( uint256 => int ) votes;\n        mapping ( uint256 => bool ) received;\n        uint256[] designes;\n        uint256 balance;\n    }\n\n    //information about the print begin,the print end and design name\n    struct printingProcess\n    {\n        \n        uint256 startTimestamp;\n        uint256 endTimestamp;\n        bytes32 printingdataHash;\n        bytes32 designHash;\n\n    }\n   \n    //Printer details\n    struct printerDetails\n    {\n        bytes32 make;\n        bytes32 name;\n        uint strength;    // values: Very High = 3, High = 2, Medium =1 , Low = 0\n        uint flexibility; // values: Very High = 3, High = 2, Medium =1 , Low = 0\n        uint durability;  // values: Very High = 3, High = 2, Medium =1 , Low = 0\n        uint difficulty;  // values: Very High = 3, High = 2, Medium =1 , Low = 0\n        int printTemperature;\n        int bedTemperature;\n        bool soluble;\n        bool foodSafety;\n    }\n    \n    //Proof of printing\n    //This structure contains the player address who prints the design\n    //using the printer addressed by printer address. The proof of file\n    //is represented by IPFS file hash.\n    mapping ( uint => mapping ( address => mapping ( address => bytes32 ))) private printingProof;\n    \n    //Mapping if the proof exists\n    mapping ( uint => mapping ( address => mapping ( address => bool ))) private isProof;\n    \n    //Mapping of design identified by design index and collection of players indexes registered to vote \n    mapping (uint256 => mapping (address => uint)) private checkPlayers;\n    mapping (uint256 => address[]) private regPlayers;\n    \n    //Design details indexed by design index\n    mapping (uint256 => designState) private designes;\n    uint256 private numDesignes = 0;\n    \n    //Player details indexed by player address\n    mapping (address => playerState) private players;\n    mapping (address => uint) private isPlayer;\n    address[] private playerAddresses;\n   \n    //Printer details indexed by printer address\n    mapping (address => printerDetails) private printers;\n    mapping (address => uint) private isPrinter;\n    address[] private printerAddresses;\n    \n\n    //Printing procesthe printer addresss indexed by \n    mapping (address=>printingProcess)private printersWork;\n\n    //Printer player mapping\n    mapping (address => address[]) private userPrinters;\n    \n    //Notifications for successful completion of events\n    event newDesignAvailable(bytes32 file_hash, uint256 design_number, address creator);\n    event resultCalculated(bytes32 file_hash, uint256 design_number, address creator);\n    event newPlayerAddition(address player_address, bool status);\n    event newPlayerRegistration(address player_address, uint256 design_number, bool status);\n    event playerDesignReceived(uint256 design_number, address player_address);\n    event playerCommitted(uint256 design_number, address player_address);\n    event playerRevealed(uint256 design_number, address player_address);\n    event votingResult(int result);\n    \n    event newPrinterAddition(address printer, bytes32 name);\n    event proofAdded( uint256 design_number, address player_address, address printer_address);\n    \n    event tempOutput(address _output);//, uint256 timestamp, uint256 expiry, uint256 balance);\n\n    //The commitment is send via the value field in the remix. If the sent value matches the commitment parameter,\n    //the contract announces the availability of new design for verification.\n    function announce(bytes32 _fileHash, uint256 _timestamp, uint256 _commitment, address _manager, uint256 _taur, uint256 _taup, uint256 _deltaExp, uint256 _deltaReveal)\n        public payable\n    {\n        //Check for positive commitment\n        require(_commitment > 0, \"The commitment should be more than 0.\");\n       \n        //Check if the commitment parameter matches the commiment sent to the contract.\n        require(msg.value == _commitment, \"The announcement didn't receive the commitment.\");\n       \n        //Design index\n        uint256 j = numDesignes;\n        \n        //Design file hash from IPFS\n        designes[j].filehash = _fileHash;\n        \n        //Design creator\n        designes[j].vendor = msg.sender;\n       \n        //Creation timestamp received from the js script\n        designes[j].timestamp = _timestamp;\n       \n        //Commitment\n        designes[j].balance = _commitment;\n       \n        //Set a manager\n        designes[j].manager = _manager;\n        \n        //Set result to zero\n        designes[j].result = 0;\n        \n        //Setting the value for reward\n        if (_taur == 0) {\n            designes[j].taur = 1000000000000000000;\n        } else {\n            designes[j].taur = _taur;    \n        }\n        \n        //Setting the value for penalty\n        if (_taup == 0) {\n            designes[j].taup = 1000000000000000000;\n        } else {\n            designes[j].taup = _taup;    \n        }\n        \n        //Setting the value for expiry\n        if (_deltaExp == 0) {\n            designes[j].deltaExp = 600;\n        } else {\n            designes[j].deltaExp = _deltaExp;    \n        }\n        \n        //Setting the value for reveal\n        if (_deltaReveal == 0) {\n            designes[j].deltaReveal = 600;\n        } else {\n            designes[j].deltaReveal = _deltaReveal;    \n        }\n        \n        //Set the status to be created\n        designes[j].status = 0;\n        \n        //Incrementing the design index\n        numDesignes = numDesignes + 1;\n       \n        //Emitting notification for new design creation.\n        //Verifiers receiving the notification can participate in the process\n        //Filehash to ensure file integrity\n        //Index to use for search\n        //Vendor address for source verification\n        emit newDesignAvailable(_fileHash, j, msg.sender);\n    }\n    \n    //Reader function to get number of designes\n    function getNumDesignes() public view returns (uint256) {\n        return numDesignes;\n    }\n    \n    //Reader function to get designe details at _index\n    function getDesigne(uint256 _index) public view returns (designState memory) {\n        return designes[_index];\n    }\n   \n    //Function to add players to the system. This does not mean the player is registering to vote.\n    //function addPlayer(bytes32 _hashMsg, bytes memory _signature) public {\n    function addPlayer(bytes32 _hashMsg, bytes memory _signature) public {\n        //Check for identity of the user registering\n        (uint8 _v, bytes32 _r, bytes32 _s) = splitSignature(_signature);\n        bytes32 prefixedHash = keccak256(abi.encodePacked(\"\\x19Ethereum Signed Message:\\n32\", _hashMsg));\n        require(ecrecover(prefixedHash, _v, _r, _s) == msg.sender, \"The registration identity verification failed.\");\n        \n        //Check for existing player\n        require( isPlayer [ msg.sender ] == 0, \"Player already added to the system.\");\n        \n        //Push Player address\n        playerAddresses.push ( msg.sender );\n        \n        //Set player to 1 to denote that player is added to the system\n        isPlayer [ msg.sender ] = 1;\n        \n        //Initialize player requesting registration\n        players[msg.sender].reputation = 1;\n        players[msg.sender].weight = 1;\n        \n        //Event for successful registration\n        emit newPlayerAddition(msg.sender, true);\n        \n    }\n    \n    //Reader function to get number of players\n    function getNumPlayers() public view returns (uint256) {\n        return playerAddresses.length;\n    }\n    \n    //Reader function to get player's addresses\n    function getPlayerAddresses() public view returns (address[] memory) {\n        return playerAddresses;\n    }\n    \n    //Reader function to get player details for _playerAddress. \n    //This does not include the vote, commitment, and design file received status\n    function getPlayerDetails(address _playerAddress) public view returns ( int256, uint256, uint256 ) {\n        return ( players[_playerAddress].reputation, players[_playerAddress].weight, players[_playerAddress].balance );\n    }\n    \n    //Get commitment corresponding to design number and player\n    function getPlayerCommitment(address _playerAddress, uint256 _designNo) public view returns ( bytes32 ) {\n        return ( players[_playerAddress].commitments[_designNo] );\n    }\n    \n    //Get vote corresponding to design number and player\n    function getPlayerVote(address _playerAddress, uint256 _designNo) public view returns ( int ) {\n        return ( players[_playerAddress].votes[_designNo] );\n    }\n    \n    //Check file received status corresponding to design number and player\n    function isFileReceived(address _playerAddress, uint256 _designNo) public view returns ( bool ) {\n        return ( players[_playerAddress].received[_designNo] );\n    }\n    \n    //This function can be considered as expression of interest to take part in the voting and not to be confused with\n    //player registration to the system.\n    function register(bytes32 _hashMsg, bytes memory _signature, uint256 _designNo, uint256 _commitment)\n        public payable\n    {\n        //Check of player is added to the system\n        require(isPlayer [ msg.sender ] == 1, \"Player not added to the system.\");\n        \n        //Check for identity of the user registering\n        (uint8 _v, bytes32 _r, bytes32 _s) = splitSignature(_signature);\n        bytes memory prefix = \"\\x19Ethereum Signed Message:\\n32\";\n        bytes32 prefixedHash = keccak256(abi.encodePacked(prefix, _hashMsg));\n        require(ecrecover(prefixedHash, _v, _r, _s) == msg.sender, \"The registration identity verification failed.\");\n        \n        //Check for positive commitment\n        require(_commitment > 0, \"The commitment should be more than 0.\");\n       \n        //Check if the commitment parameter matches the commiment sent to the contract.\n        require(msg.value == _commitment, \"The registration didn't receive the commitment.\");\n       \n        //Check if the commitment is less than penalty\n        require(_commitment >= designes[_designNo].taup, \"The commitment should be greater than the penalty.\");\n       \n        //Check if the required number of verifiers are already meet\n        require(regPlayers[_designNo].length < designes[_designNo].balance / designes[_designNo].taur, \"No more registrations are accepted.\");\n\n        //Check if already registered\n        require(checkPlayers[_designNo][msg.sender] == 0, \"Player already registered.\");\n        \n        //Incrementing the player index and registration\n        checkPlayers[_designNo][msg.sender] = 1;\n        regPlayers[_designNo].push(msg.sender);\n        players[msg.sender].balance += msg.value;\n        \n        //Event for successful registration for a design\n        emit newPlayerRegistration(msg.sender, _designNo, true);\n    }\n   \n    //Reader function to get number of registered players\n    function getNumRegPlayers(uint256 _designNo) public view returns (uint256) {\n        return regPlayers[_designNo].length;\n    }\n    \n    //Reader function to get registered player's addresses\n    function getRegPlayerAddresses(uint256 _designNo) public view returns (address[] memory) {\n        return regPlayers[_designNo];\n    }\n    \n    function setReceived(uint256 _designNo, address _playerAddress)\n        public payable\n    {\n        //Check if the sender is the manager responsible for secure exchange.\n        require(msg.sender == designes[_designNo].manager, \"Only manager can call this function.\");\n        \n        //The manager sets the design received to be true\n        players[_playerAddress].received[_designNo] = true;\n        players[_playerAddress].designes.push(_designNo);\n        \n        //An event is emitted after successful\n        emit playerDesignReceived(_designNo, _playerAddress);\n    }\n   \n    function commit(uint256 _designNo, bytes32 _cryptoCommitment, uint256 _timestamp)\n        public\n    {\n        //Check if the player received the design and ready to vote.\n        require(players[msg.sender].received[_designNo] == true, \"The player can commit only when manager confirms design exchange.\");\n        \n        //Check for expiry\n        require(_timestamp <= designes[_designNo].timestamp + designes[_designNo].deltaExp, \"The player cannot vote after expiry.\");\n        \n        //Store the commitment by the player\n        players[msg.sender].commitments[_designNo] = _cryptoCommitment;\n        \n        //An event emitted after successful commitment of vote\n        emit playerCommitted(_designNo, msg.sender);\n    }\n   \n    function reveal(uint256 _designNo, int _vote, bytes32 _nonce, uint256 _timestamp)\n        public\n    {\n        //Check for expiry. Beyond the expiry, the player revealing will have \n        //a picture of the voting trend and thus, can change for profit.\n        require(_timestamp <= designes[_designNo].timestamp + designes[_designNo].deltaExp + designes[_designNo].deltaReveal, \"The vote cannot be revealed after the expiry.\");\n        \n        //Check the commitment\n        require(players[msg.sender].commitments[_designNo] == keccak256(abi.encodePacked(_vote, _nonce)), \"The player did not commit to this.\");\n        \n        //Store the vote by the player\n        players[msg.sender].votes[_designNo] = _vote;\n        \n        //An event emitted after successful reveal of vote\n        emit playerRevealed(_designNo, msg.sender);\n    }\n\n    function calculateResult(uint256 _designNo, uint256 _timestamp)\n        public\n    {\n        //Check the status of the voting. If already completed, then this function is not run.\n        require(designes[_designNo].status == 0, \"The voting is already finished and results are declared.\");\n        \n        //Check for expiry. The result cannot be calculated before the expiry.\n        require(_timestamp > designes[_designNo].timestamp + designes[_designNo].deltaExp + designes[_designNo].deltaReveal, \"The result cannot be revealed before the expiry.\");\n        \n        //Since solidity do not support floating point arithematic, we will store the value as quotient and remainder.\n        //Here we are calculating the numerator and denominator.\n        int256 playerNum = 0;\n        int256 playerDen = 0;\n        for ( uint256 i = 0; i < regPlayers[_designNo].length; i++ ) {\n            playerNum  += ( players[regPlayers[_designNo][i]].votes[_designNo] * int( players[regPlayers[_designNo][i]].weight ) * players[regPlayers[_designNo][i]].reputation );    \n            playerDen  += int ( players[regPlayers[_designNo][i]].weight ) * players[regPlayers[_designNo][i]].reputation;\n        }\n        \n        //Here we are just calculating the remainder as the value varies from 0 to 1.\n        //The borderline case of same positive and negative votes is considered as correct (To be decided later)\n        int256 finalScoreQuo = ( playerNum + playerDen ) / ( 2 * playerDen );\n        int256 finalScoreRem = ( playerNum + playerDen ) % ( 2 * playerDen );\n        int result = 0;\n        if ( finalScoreQuo == 1 || finalScoreRem >= playerDen ) {\n            designes[_designNo].result = 1;\n        } else if ( finalScoreRem < playerDen ) {\n            designes[_designNo].result = -1;\n        }\n        \n        for ( uint256 i = 0; i < regPlayers[_designNo].length; i++ ) {\n            if ( players[regPlayers[_designNo][i]].votes[_designNo] > 0 ) {\n                //Set new reputation\n                players[regPlayers[_designNo][i]].reputation += players[regPlayers[_designNo][i]].votes[_designNo] * result;    \n        \n                //Set new weight (we only use the player weight. The total weight, which is used as normalization factor is eliminated in the final calculation.)\n                players[regPlayers[_designNo][i]].weight += uint ( players[regPlayers[_designNo][i]].votes[_designNo] * result );\n            } else {\n                //Set new reputation\n                players[regPlayers[_designNo][i]].reputation += -1 * result;    \n        \n                //Set new weight (we only use the player weight. The total weight, which is used as normalization factor is eliminated in the final calculation.)\n                players[regPlayers[_designNo][i]].weight += uint ( -1 * result );\n            }\n        }\n        \n        //Retuen the player commitments\n        for ( uint256 i = 0; i < regPlayers[_designNo].length; i++ ) {\n            if ( players[regPlayers[_designNo][i]].votes[_designNo] * result == 1) {\n                players[regPlayers[_designNo][i]].balance += designes[_designNo].taur;\n                designes[_designNo].balance -= designes[_designNo].taur;\n            } else {\n                players[regPlayers[_designNo][i]].balance -= designes[_designNo].taup;\n                designes[_designNo].balance += designes[_designNo].taup;\n            }\n        }\n        \n        //Set the status to finished\n        designes[_designNo].status = 1;\n        \n        //Emit the notification for the result\n        emit votingResult(result);\n    }\n   \n    //This is a utility function to extract ECDSA parameters from the signature.\n    function splitSignature(bytes memory sig)\n    private\n    pure\n    returns (uint8, bytes32, bytes32)\n    {\n        require(sig.length == 65);\n\n        bytes32 r;\n        bytes32 s;\n        uint8 v;\n\n        assembly {\n            // first 32 bytes, after the length prefix\n            r := mload(add(sig, 32))\n            // second 32 bytes\n            s := mload(add(sig, 64))\n            // final byte (first byte of the next 32 bytes)\n            v := byte(0, mload(add(sig, 96)))\n        }\n        \n        if (v < 27) {\n            v += 27;\n        }\n\n        return (v, r, s);\n    }\n\n    function addPrinter(address _printerAddr, bytes32 _make, bytes32 _name, uint _strength, uint _flexibility, uint _durability, uint _difficulty, int _printTemperature,\n    int _bedTemperature, bool _soluble, bool _foodSafety) \n    public \n    {\n        //Check for existing player\n\n        require( isPlayer [ msg.sender ] == 1, \"Only registered player can add a printer.\");\n        \n        //Setting up required properties\n        printers [ _printerAddr ].make = _make;\n        printers [ _printerAddr ].name = _name;\n        printers [ _printerAddr ].strength = _strength;    \n        printers [ _printerAddr ].flexibility = _flexibility; \n        printers [ _printerAddr ].durability = _durability;  \n        printers [ _printerAddr ].difficulty = _difficulty;  \n        printers [ _printerAddr ].printTemperature = _printTemperature;\n        printers [ _printerAddr ].bedTemperature = _bedTemperature;\n        printers [ _printerAddr ].soluble = _soluble;\n        printers [ _printerAddr ].foodSafety = _foodSafety;\n        \n        //Add printer address to the array\n        printerAddresses.push( _printerAddr );\n        isPrinter [ _printerAddr ] = 1;\n        \n        //Mapping the player and the printer/s\n        userPrinters [ msg.sender ].push( _printerAddr );\n        \n        //Emit the successfull addition\n        emit newPrinterAddition(_printerAddr, _name);\n    }   \n    \n    //Reader function to get number of printers registered by a user\n    function getUserPrinters(address _userAddress) public view returns (address[] memory) {\n        return userPrinters[ _userAddress ];\n    }\n    \n    //Reader function to get printer details of printer identified by address\n    function getPrinterDetails(address _printerAddr) public view returns (printerDetails memory) {\n        return printers[ _printerAddr ];\n    }\n    \n    //Reader function for number of printers registered\n    function getNumPrinters() public view returns (uint256) {\n        return printerAddresses.length;\n    }\n    \n    \n    \n    \n    /*\n    function addProof( uint256 _designNo, address _printerAddress, bytes32 _fileHash ) public {\n        \n        //Check for existing player\n        require( isPlayer [ msg.sender ] == 1, \"Only registered player can add proof of printer.\");\n        \n        //Check for existing printer\n        require( isPrinter [ _printerAddress ] == 1, \"Only proof from a registered printer can be added.\");\n        \n        //Add the proof\n        printingProof [ _designNo ][ msg.sender ][ _printerAddress ] = _fileHash;\n        isProof [ _designNo ][ msg.sender ][ _printerAddress ] = true;\n        \n        //Emit event\n        emit proofAdded( _designNo, msg.sender, _printerAddress);\n    }\n    */\n    function get_printingProcess(address _printerAddress)public view returns(printingProcess memory){\n        return printersWork[_printerAddress] ;\n    }\n\n    function printingBegin(address _printerAddress,uint256 startTimestamp,bytes32 designHash) public {\n        \n        require( isPlayer [ msg.sender ] == 1, \"Only registered player can add proof of printer.\");\n\n        //Check for an existing printer\n        require( isPrinter [ _printerAddress ] == 1, \"Only proof from a registered printer can be added.\");\n\n        printersWork[_printerAddress].startTimestamp=startTimestamp;\n        printersWork[_printerAddress].designHash=designHash;\n    } \n\n\n    function end_of_printing(address _printerAddress,uint256 endTimestamp,bytes32 printingdataHash) public {\n        \n        require( isPlayer [ msg.sender ] == 1, \"Only registered player can add proof of printer.\");\n\n        //Check for an existing printer\n        require( isPrinter [ _printerAddress ] == 1, \"Only proof from a registered printer can be added.\");\n\n        printersWork[_printerAddress].endTimestamp=endTimestamp;\n        printersWork[_printerAddress].printingdataHash=printingdataHash;\n\n    }\n\n\n    //Function to check if the researcher added the proof from the printer\n    function isProofPresent( uint256 _designNo, address _userAddress, address _printerAddress ) public view returns (bool) {\n        return isProof [ _designNo ][ _userAddress ][ _printerAddress ];\n    }\n    \n    \n}\n",
  "sourcePath": "/home/mike/Scrivania/Controller/Controller_script/web3py/contracts/Design_voting_with_printer_details.sol",
  "compiler": {
    "name": "solc",
    "version": "0.7.0+commit.9e61f92b.Emscripten.clang"
  },
  "schemaVersion": "3.4.3",
  "updatedAt": "2021-09-21T14:36:44.752Z",
  "networkType": "ethereum",
  "devdoc": {
    "kind": "dev",
    "methods": {},
    "version": 1
  },
  "userdoc": {
    "kind": "user",
    "methods": {},
    "version": 1
  }
}