{
  "contractName": "PrintingProcess",
  "abi": [
    {
      "inputs": [
        {
          "internalType": "bytes32",
          "name": "orderID",
          "type": "bytes32"
        },
        {
          "internalType": "address",
          "name": "_printerAddress",
          "type": "address"
        }
      ],
      "name": "get_printing_process",
      "outputs": [
        {
          "components": [
            {
              "internalType": "bytes32",
              "name": "designHash",
              "type": "bytes32"
            },
            {
              "internalType": "uint256",
              "name": "piece",
              "type": "uint256"
            },
            {
              "internalType": "uint256",
              "name": "startTimestamp",
              "type": "uint256"
            },
            {
              "internalType": "uint256",
              "name": "endTimestamp",
              "type": "uint256"
            },
            {
              "internalType": "int256",
              "name": "status",
              "type": "int256"
            }
          ],
          "internalType": "struct PrintingProcess.printingProcess[]",
          "name": "",
          "type": "tuple[]"
        }
      ],
      "stateMutability": "view",
      "type": "function",
      "constant": true
    },
    {
      "inputs": [
        {
          "internalType": "bytes32",
          "name": "orderID",
          "type": "bytes32"
        },
        {
          "internalType": "address",
          "name": "_printerAddress",
          "type": "address"
        },
        {
          "internalType": "bytes32",
          "name": "designHash",
          "type": "bytes32"
        },
        {
          "internalType": "uint256",
          "name": "piece",
          "type": "uint256"
        },
        {
          "internalType": "uint256",
          "name": "startTimestamp",
          "type": "uint256"
        }
      ],
      "name": "start_printing",
      "outputs": [],
      "stateMutability": "payable",
      "type": "function",
      "payable": true
    },
    {
      "inputs": [
        {
          "internalType": "bytes32",
          "name": "orderID",
          "type": "bytes32"
        },
        {
          "internalType": "address",
          "name": "_printerAddress",
          "type": "address"
        },
        {
          "internalType": "uint256",
          "name": "piece",
          "type": "uint256"
        }
      ],
      "name": "search_printing_process",
      "outputs": [
        {
          "internalType": "int256",
          "name": "index",
          "type": "int256"
        }
      ],
      "stateMutability": "view",
      "type": "function",
      "constant": true
    },
    {
      "inputs": [
        {
          "internalType": "bytes32",
          "name": "orderID",
          "type": "bytes32"
        },
        {
          "internalType": "address",
          "name": "_printerAddress",
          "type": "address"
        },
        {
          "internalType": "uint256",
          "name": "piece",
          "type": "uint256"
        },
        {
          "internalType": "uint256",
          "name": "endTimestamp",
          "type": "uint256"
        },
        {
          "internalType": "int256",
          "name": "status",
          "type": "int256"
        }
      ],
      "name": "end_printing",
      "outputs": [],
      "stateMutability": "payable",
      "type": "function",
      "payable": true
    }
  ],
  "bytecode": "0x608060405234801561001057600080fd5b506110d4806100206000396000f3fe60806040526004361061003f5760003560e01c8063082ac05c146100445780635cc5286614610081578063a73be82a1461009d578063c3ef7194146100b9575b600080fd5b34801561005057600080fd5b5061006b6004803603810190610066919061093d565b6100f6565b60405161007891906109a9565b60405180910390f35b61009b600480360381019061009691906109c4565b610217565b005b6100b760048036038101906100b29190610a6b565b6103f1565b005b3480156100c557600080fd5b506100e060048036038101906100db9190610ae6565b61078d565b6040516100ed9190610c6a565b60405180910390f35b60007fffffffffffffffffffffffffffffffffffffffffffffffffffffffffffffffff905060005b60008086815260200190815260200160002060008573ffffffffffffffffffffffffffffffffffffffff1673ffffffffffffffffffffffffffffffffffffffff1681526020019081526020016000208054905081101561020e578260008087815260200190815260200160002060008673ffffffffffffffffffffffffffffffffffffffff1673ffffffffffffffffffffffffffffffffffffffff16815260200190815260200160002082815481106101da576101d9610c8c565b5b90600052602060002090600502016001015414156101fb5780915050610210565b808061020690610cea565b91505061011e565b505b9392505050565b7fffffffffffffffffffffffffffffffffffffffffffffffffffffffffffffffff3073ffffffffffffffffffffffffffffffffffffffff1663082ac05c8787866040518463ffffffff1660e01b815260040161027593929190610d60565b602060405180830381865afa158015610292573d6000803e3d6000fd5b505050506040513d601f19601f820116820180604052508101906102b69190610dac565b146102f6576040517f08c379a00000000000000000000000000000000000000000000000000000000081526004016102ed90610e5c565b60405180910390fd5b60008086815260200190815260200160002060008573ffffffffffffffffffffffffffffffffffffffff1673ffffffffffffffffffffffffffffffffffffffff1681526020019081526020016000206040518060a00160405280858152602001848152602001838152602001600081526020017fffffffffffffffffffffffffffffffffffffffffffffffffffffffffffffffff8152509080600181540180825580915050600190039060005260206000209060050201600090919091909150600082015181600001556020820151816001015560408201518160020155606082015181600301556080820151816004015550505050505050565b60008114158015610403575060028113155b610442576040517f08c379a000000000000000000000000000000000000000000000000000000000815260040161043990610ec8565b60405180910390fd5b60003073ffffffffffffffffffffffffffffffffffffffff1663082ac05c8787876040518463ffffffff1660e01b815260040161048193929190610d60565b602060405180830381865afa15801561049e573d6000803e3d6000fd5b505050506040513d601f19601f820116820180604052508101906104c29190610dac565b90507fffffffffffffffffffffffffffffffffffffffffffffffffffffffffffffffff811415610527576040517f08c379a000000000000000000000000000000000000000000000000000000000815260040161051e90610f5a565b60405180910390fd5b600081905060008088815260200190815260200160002060008773ffffffffffffffffffffffffffffffffffffffff1673ffffffffffffffffffffffffffffffffffffffff168152602001908152602001600020818154811061058d5761058c610c8c565b5b90600052602060002090600502016002015484116105e0576040517f08c379a00000000000000000000000000000000000000000000000000000000081526004016105d790610fec565b60405180910390fd5b600260008089815260200190815260200160002060008873ffffffffffffffffffffffffffffffffffffffff1673ffffffffffffffffffffffffffffffffffffffff168152602001908152602001600020828154811061064357610642610c8c565b5b9060005260206000209060050201600401541415610696576040517f08c379a000000000000000000000000000000000000000000000000000000000815260040161068d9061107e565b60405180910390fd5b8360008089815260200190815260200160002060008873ffffffffffffffffffffffffffffffffffffffff1673ffffffffffffffffffffffffffffffffffffffff16815260200190815260200160002082815481106106f8576106f7610c8c565b5b9060005260206000209060050201600301819055508260008089815260200190815260200160002060008873ffffffffffffffffffffffffffffffffffffffff1673ffffffffffffffffffffffffffffffffffffffff168152602001908152602001600020828154811061076f5761076e610c8c565b5b90600052602060002090600502016004018190555050505050505050565b606060008084815260200190815260200160002060008373ffffffffffffffffffffffffffffffffffffffff1673ffffffffffffffffffffffffffffffffffffffff168152602001908152602001600020805480602002602001604051908101604052809291908181526020016000905b8282101561086257838290600052602060002090600502016040518060a001604052908160008201548152602001600182015481526020016002820154815260200160038201548152602001600482015481525050815260200190600101906107fe565b50505050905092915050565b600080fd5b6000819050919050565b61088681610873565b811461089157600080fd5b50565b6000813590506108a38161087d565b92915050565b600073ffffffffffffffffffffffffffffffffffffffff82169050919050565b60006108d4826108a9565b9050919050565b6108e4816108c9565b81146108ef57600080fd5b50565b600081359050610901816108db565b92915050565b6000819050919050565b61091a81610907565b811461092557600080fd5b50565b60008135905061093781610911565b92915050565b6000806000606084860312156109565761095561086e565b5b600061096486828701610894565b9350506020610975868287016108f2565b925050604061098686828701610928565b9150509250925092565b6000819050919050565b6109a381610990565b82525050565b60006020820190506109be600083018461099a565b92915050565b600080600080600060a086880312156109e0576109df61086e565b5b60006109ee88828901610894565b95505060206109ff888289016108f2565b9450506040610a1088828901610894565b9350506060610a2188828901610928565b9250506080610a3288828901610928565b9150509295509295909350565b610a4881610990565b8114610a5357600080fd5b50565b600081359050610a6581610a3f565b92915050565b600080600080600060a08688031215610a8757610a8661086e565b5b6000610a9588828901610894565b9550506020610aa6888289016108f2565b9450506040610ab788828901610928565b9350506060610ac888828901610928565b9250506080610ad988828901610a56565b9150509295509295909350565b60008060408385031215610afd57610afc61086e565b5b6000610b0b85828601610894565b9250506020610b1c858286016108f2565b9150509250929050565b600081519050919050565b600082825260208201905092915050565b6000819050602082019050919050565b610b5b81610873565b82525050565b610b6a81610907565b82525050565b610b7981610990565b82525050565b60a082016000820151610b956000850182610b52565b506020820151610ba86020850182610b61565b506040820151610bbb6040850182610b61565b506060820151610bce6060850182610b61565b506080820151610be16080850182610b70565b50505050565b6000610bf38383610b7f565b60a08301905092915050565b6000602082019050919050565b6000610c1782610b26565b610c218185610b31565b9350610c2c83610b42565b8060005b83811015610c5d578151610c448882610be7565b9750610c4f83610bff565b925050600181019050610c30565b5085935050505092915050565b60006020820190508181036000830152610c848184610c0c565b905092915050565b7f4e487b7100000000000000000000000000000000000000000000000000000000600052603260045260246000fd5b7f4e487b7100000000000000000000000000000000000000000000000000000000600052601160045260246000fd5b6000610cf582610907565b91507fffffffffffffffffffffffffffffffffffffffffffffffffffffffffffffffff821415610d2857610d27610cbb565b5b600182019050919050565b610d3c81610873565b82525050565b610d4b816108c9565b82525050565b610d5a81610907565b82525050565b6000606082019050610d756000830186610d33565b610d826020830185610d42565b610d8f6040830184610d51565b949350505050565b600081519050610da681610a3f565b92915050565b600060208284031215610dc257610dc161086e565b5b6000610dd084828501610d97565b91505092915050565b600082825260208201905092915050565b7f546865726520697320616c726561647920612070726f6f66206f66207072696e60008201527f7420666f72207468697320706965636500000000000000000000000000000000602082015250565b6000610e46603083610dd9565b9150610e5182610dea565b604082019050919050565b60006020820190508181036000830152610e7581610e39565b9050919050565b7f737461747573206e6f742076616c696400000000000000000000000000000000600082015250565b6000610eb2601083610dd9565b9150610ebd82610e7c565b602082019050919050565b60006020820190508181036000830152610ee181610ea5565b9050919050565b7f596f752063616e277420656e6420612070726f6f66206f66207072696e74206260008201527f65666f7265207374617274732069740000000000000000000000000000000000602082015250565b6000610f44602f83610dd9565b9150610f4f82610ee8565b604082019050919050565b60006020820190508181036000830152610f7381610f37565b9050919050565b7f456e642074696d657374616d702063616e6e6f74206265206265666f7265207360008201527f746172742074696d657374616d70000000000000000000000000000000000000602082015250565b6000610fd6602e83610dd9565b9150610fe182610f7a565b604082019050919050565b6000602082019050818103600083015261100581610fc9565b9050919050565b7f546869732070726f6f66206f66207072696e7420616c72656164792066696e6960008201527f7368656420776974682073756363657373000000000000000000000000000000602082015250565b6000611068603183610dd9565b91506110738261100c565b604082019050919050565b600060208201905081810360008301526110978161105b565b905091905056fea26469706673582212203d42b58906b8e530ab66b36e45699ce42264c5b8d92b19bc00fabf91230c444064736f6c634300080b0033",
  "immutableReferences": {},
  "source": "pragma solidity >=0.4.22 <0.9.0;\npragma experimental ABIEncoderV2;\n\ncontract PrintingProcess{\n\n\n    //information about the print begin,the print end and design name\n    struct printingProcess{\n        bytes32 designHash;\n        uint256 piece;\n        uint256 startTimestamp;\n        uint256 endTimestamp;\n        int status;\n    }\n    \n    //Printer details indexed by printer address\n    //mapping (address => printerDetails) private printers;\n    //mapping (address => uint) private isPrinter;\n    //address[] private printerAddresses;\n\n    //Makers orders\n            //orderID   //printerAddress\n    mapping (bytes32 => mapping(address => printingProcess[])) orderProcess;\n\n    function get_printing_process(bytes32 orderID ,address _printerAddress)\n    public view \n    returns(printingProcess[] memory){\n        return orderProcess[orderID][_printerAddress];\n    }\n\n    function start_printing(bytes32 orderID ,address _printerAddress, bytes32 designHash, uint256 piece, uint256 startTimestamp) \n    public payable{\n        //require( isPlayer [ msg.sender ] == 1, \"Only registered player can add proof of printer.\");\n        //Check for an existing printer\n        //require( isPrinter [ _printerAddress ] == 1, \"Only proof from a registered printer can be added.\");\n        require(this.search_printing_process(orderID, _printerAddress, piece)==-1, \"There is already a proof of print for this piece\");\n        orderProcess[orderID][_printerAddress].push(printingProcess(designHash, piece, startTimestamp, 0, -1));\n    }\n\n    function search_printing_process(bytes32 orderID, address _printerAddress, uint256 piece) \n    public view  \n    returns(int index){\n        index = -1;\n        for(uint i = 0; i<orderProcess[orderID][_printerAddress].length; i++){\n            if (orderProcess[orderID][_printerAddress][i].piece==piece){\n                index = int256(i);\n                return index;\n            }\n        }\n    }\n\n    function end_printing(bytes32 orderID ,address _printerAddress, uint256 piece, uint256 endTimestamp, int status) \n    public payable{\n\n        //require( isPlayer [ msg.sender ] == 1, \"Only registered player can add proof of printer.\");\n        //Check for an existing printer\n        //require( isPrinter [ _printerAddress ] == 1, \"Only proof from a registered printer can be added.\");\n        require(status!=0 && status<=2, \"status not valid\");\n        \n        int index = this.search_printing_process(orderID, _printerAddress, piece);\n        require(index!=-1, \"You can't end a proof of print before starts it\");\n        \n        uint256 i = uint256(index);\n        require(endTimestamp>orderProcess[orderID][_printerAddress][i].startTimestamp,\"End timestamp cannot be before start timestamp\");\n        require(orderProcess[orderID][_printerAddress][i].status!=2, \"This proof of print already finished with success\");\n        \n        orderProcess[orderID][_printerAddress][i].endTimestamp=endTimestamp;\n        orderProcess[orderID][_printerAddress][i].status=status;\n    }\n\n\n\n} \n",
  "sourcePath": "/Users/antoniopipitone/Desktop/af2-printer-controller/TestWeb3Python/contracts/PrintingProcess.sol",
  "compiler": {
    "name": "solc",
    "version": "0.8.11+commit.d7f03943.Emscripten.clang"
  },
  "schemaVersion": "3.4.4",
  "updatedAt": "2022-03-01T11:56:19.053Z",
  "networkType": "ethereum",
  "devdoc": {
    "kind": "dev",
    "methods": {},
    "version": 1
  },
  "userdoc": {
    "kind": "user",
    "methods": {},
    "version": 1
  }
}